{"abi":[{"type":"constructor","inputs":[{"name":"_config","type":"address","internalType":"address"}],"stateMutability":"nonpayable"},{"type":"function","name":"auctionId","inputs":[],"outputs":[{"name":"","type":"uint256","internalType":"uint256"}],"stateMutability":"view"},{"type":"function","name":"auctions","inputs":[{"name":"","type":"uint256","internalType":"uint256"}],"outputs":[{"name":"endTime","type":"uint256","internalType":"uint256"}],"stateMutability":"view"},{"type":"function","name":"bid","inputs":[{"name":"_characterIndex","type":"uint8","internalType":"uint8"}],"outputs":[],"stateMutability":"payable"},{"type":"function","name":"checkUnclaimedTokens","inputs":[{"name":"_user","type":"address","internalType":"address"},{"name":"_auctionId","type":"uint256","internalType":"uint256"}],"outputs":[{"name":"","type":"uint256","internalType":"uint256"}],"stateMutability":"view"},{"type":"function","name":"claimTokens","inputs":[{"name":"_auctionId","type":"uint256","internalType":"uint256"}],"outputs":[],"stateMutability":"nonpayable"},{"type":"function","name":"closeCurrentAuction","inputs":[{"name":"_topBidder","type":"address","internalType":"address"},{"name":"_winningCharacterIndex","type":"uint8","internalType":"uint8"}],"outputs":[],"stateMutability":"nonpayable"},{"type":"function","name":"createAuction","inputs":[{"name":"characterURIs","type":"string[3]","internalType":"string[3]"},{"name":"names","type":"string[3]","internalType":"string[3]"},{"name":"symbols","type":"string[3]","internalType":"string[3]"}],"outputs":[],"stateMutability":"nonpayable"},{"type":"function","name":"getAuctionCharacterData","inputs":[{"name":"_auctionId","type":"uint256","internalType":"uint256"},{"name":"_characterIndex","type":"uint256","internalType":"uint256"}],"outputs":[{"name":"","type":"string","internalType":"string"},{"name":"","type":"string","internalType":"string"},{"name":"","type":"string","internalType":"string"},{"name":"","type":"uint256","internalType":"uint256"},{"name":"","type":"bool","internalType":"bool"}],"stateMutability":"view"},{"type":"function","name":"getAuctionEndTime","inputs":[{"name":"_auctionId","type":"uint256","internalType":"uint256"}],"outputs":[{"name":"","type":"uint256","internalType":"uint256"}],"stateMutability":"view"},{"type":"function","name":"getCharacterTokenAddress","inputs":[{"name":"_auctionId","type":"uint256","internalType":"uint256"}],"outputs":[{"name":"","type":"address","internalType":"address"}],"stateMutability":"view"},{"type":"function","name":"getCurrentAuctionEndTime","inputs":[],"outputs":[{"name":"","type":"uint256","internalType":"uint256"}],"stateMutability":"view"},{"type":"function","name":"getPoolBalance","inputs":[{"name":"_auctionId","type":"uint256","internalType":"uint256"},{"name":"_characterIndex","type":"uint256","internalType":"uint256"}],"outputs":[{"name":"","type":"uint256","internalType":"uint256"}],"stateMutability":"view"},{"type":"function","name":"getUserBidBalance","inputs":[{"name":"_user","type":"address","internalType":"address"},{"name":"_auctionId","type":"uint256","internalType":"uint256"},{"name":"_characterIndex","type":"uint8","internalType":"uint8"}],"outputs":[{"name":"","type":"uint256","internalType":"uint256"}],"stateMutability":"view"},{"type":"function","name":"userBidBalance","inputs":[{"name":"","type":"address","internalType":"address"},{"name":"","type":"uint256","internalType":"uint256"},{"name":"","type":"uint8","internalType":"uint8"}],"outputs":[{"name":"","type":"uint256","internalType":"uint256"}],"stateMutability":"view"},{"type":"function","name":"withdrawBid","inputs":[{"name":"_auctionId","type":"uint256","internalType":"uint256"},{"name":"_characterIndex","type":"uint8","internalType":"uint8"},{"name":"_amount","type":"uint256","internalType":"uint256"}],"outputs":[],"stateMutability":"nonpayable"},{"type":"event","name":"AuctionTimeChanged","inputs":[{"name":"_auctionDurationTime","type":"uint256","indexed":false,"internalType":"uint256"}],"anonymous":false},{"type":"event","name":"BidPlaced","inputs":[{"name":"_auctionId","type":"uint256","indexed":true,"internalType":"uint256"},{"name":"_user","type":"address","indexed":true,"internalType":"address"},{"name":"_amount","type":"uint256","indexed":false,"internalType":"uint256"},{"name":"_characterId","type":"uint256","indexed":false,"internalType":"uint256"}],"anonymous":false},{"type":"event","name":"BidWithdrawn","inputs":[{"name":"_auctionId","type":"uint256","indexed":false,"internalType":"uint256"},{"name":"user","type":"address","indexed":false,"internalType":"address"},{"name":"_withdrawAmount","type":"uint256","indexed":false,"internalType":"uint256"}],"anonymous":false},{"type":"event","name":"DigicharTokenSet","inputs":[{"name":"_digicharToken","type":"address","indexed":false,"internalType":"address"}],"anonymous":false},{"type":"event","name":"TokensClaimed","inputs":[{"name":"_user","type":"address","indexed":false,"internalType":"address"},{"name":"_auctionId","type":"uint256","indexed":false,"internalType":"uint256"}],"anonymous":false},{"type":"error","name":"AlreadyClaimed","inputs":[]},{"type":"error","name":"AmountTooLarge","inputs":[]},{"type":"error","name":"AmountZero","inputs":[]},{"type":"error","name":"AuctionClosed","inputs":[]},{"type":"error","name":"AuctionExpired","inputs":[]},{"type":"error","name":"AuctionStillOpen","inputs":[]},{"type":"error","name":"InvalidCharacter","inputs":[]},{"type":"error","name":"OnlyProtocolAdmin","inputs":[]}],"bytecode":{"object":"0x60806040526969e10de76676d080000060035534801561001d575f80fd5b506040516129a43803806129a4833981810160405281019061003f91906100e2565b805f806101000a81548173ffffffffffffffffffffffffffffffffffffffff021916908373ffffffffffffffffffffffffffffffffffffffff1602179055505061010d565b5f80fd5b5f73ffffffffffffffffffffffffffffffffffffffff82169050919050565b5f6100b182610088565b9050919050565b6100c1816100a7565b81146100cb575f80fd5b50565b5f815190506100dc816100b8565b92915050565b5f602082840312156100f7576100f6610084565b5b5f610104848285016100ce565b91505092915050565b61288a8061011a5f395ff3fe6080604052600436106100e7575f3560e01c8063865c9cdd11610089578063e6248b9f11610058578063e6248b9f146102ef578063ea7576471461032b578063ed4c4df514610367578063feb89a93146103a3576100e7565b8063865c9cdd14610221578063930e79f114610261578063cc474c421461029d578063e3363f8b146102c5576100e7565b806346e04a2f116100c557806346e04a2f14610159578063496592fa14610181578063571a26a0146101a9578063707cabc7146101e5576100e7565b806310782f8f146100eb5780632e5c93411461011557806333500e261461013d575b5f80fd5b3480156100f6575f80fd5b506100ff6103df565b60405161010c9190611a13565b60405180910390f35b348015610120575f80fd5b5061013b60048036038101906101369190611acd565b6103e5565b005b61015760048036038101906101529190611b0b565b6109a9565b005b348015610164575f80fd5b5061017f600480360381019061017a9190611b60565b610caf565b005b34801561018c575f80fd5b506101a760048036038101906101a29190611d97565b610e31565b005b3480156101b4575f80fd5b506101cf60048036038101906101ca9190611b60565b61111c565b6040516101dc9190611a13565b60405180910390f35b3480156101f0575f80fd5b5061020b60048036038101906102069190611b60565b611137565b6040516102189190611e4a565b60405180910390f35b34801561022c575f80fd5b5061024760048036038101906102429190611e63565b6111ab565b604051610258959493929190611f1b565b60405180910390f35b34801561026c575f80fd5b5061028760048036038101906102829190611b60565b6113b2565b6040516102949190611a13565b60405180910390f35b3480156102a8575f80fd5b506102c360048036038101906102be9190611f81565b6113cf565b005b3480156102d0575f80fd5b506102d96116c4565b6040516102e69190611a13565b60405180910390f35b3480156102fa575f80fd5b5061031560048036038101906103109190611e63565b6116e1565b6040516103229190611a13565b60405180910390f35b348015610336575f80fd5b50610351600480360381019061034c9190611fd1565b611717565b60405161035e9190611a13565b60405180910390f35b348015610372575f80fd5b5061038d60048036038101906103889190611fd1565b611783565b60405161039a9190611a13565b60405180910390f35b3480156103ae575f80fd5b506103c960048036038101906103c49190612021565b6117ae565b6040516103d69190611a13565b60405180910390f35b60015481565b5f8054906101000a900473ffffffffffffffffffffffffffffffffffffffff1673ffffffffffffffffffffffffffffffffffffffff1663420f68616040518163ffffffff1660e01b8152600401602060405180830381865afa15801561044d573d5f803e3d5ffd5b505050506040513d601f19601f820116820180604052508101906104719190612073565b73ffffffffffffffffffffffffffffffffffffffff163373ffffffffffffffffffffffffffffffffffffffff16146104d5576040517f6115a9ad00000000000000000000000000000000000000000000000000000000815260040160405180910390fd5b60045f60015481526020019081526020015f20600f0154421015610525576040517f6c58631700000000000000000000000000000000000000000000000000000000815260040160405180910390fd5b600160045f60015481526020019081526020015f205f018260ff16600381106105515761055061209e565b5b600502016004015f6101000a81548160ff0219169083151502179055508060085f60015481526020019081526020015f205f6101000a81548160ff021916908360ff1602179055505f60045f60015481526020019081526020015f205f018260ff16600381106105c4576105c361209e565b5b600502015f0180546105d5906120f8565b80601f0160208091040260200160405190810160405280929190818152602001828054610601906120f8565b801561064c5780601f106106235761010080835404028352916020019161064c565b820191905f5260205f20905b81548152906001019060200180831161062f57829003601f168201915b505050505090505f60045f60015481526020019081526020015f205f018360ff166003811061067e5761067d61209e565b5b600502016001018054610690906120f8565b80601f01602080910402602001604051908101604052809291908181526020018280546106bc906120f8565b80156107075780601f106106de57610100808354040283529160200191610707565b820191905f5260205f20905b8154815290600101906020018083116106ea57829003601f168201915b505050505090505f60045f60015481526020019081526020015f205f018460ff16600381106107395761073861209e565b5b60050201600201805461074b906120f8565b80601f0160208091040260200160405190810160405280929190818152602001828054610777906120f8565b80156107c25780601f10610799576101008083540402835291602001916107c2565b820191905f5260205f20905b8154815290600101906020018083116107a557829003601f168201915b505050505090505f60045f60015481526020019081526020015f205f018560ff16600381106107f4576107f361209e565b5b600502016003015490505f81036108255760015f81548092919061081790612155565b9190505550505050506109a5565b5f805f9054906101000a900473ffffffffffffffffffffffffffffffffffffffff1673ffffffffffffffffffffffffffffffffffffffff166314dd4e726040518163ffffffff1660e01b8152600401602060405180830381865afa15801561088f573d5f803e3d5ffd5b505050506040513d601f19601f820116820180604052508101906108b391906121e8565b73ffffffffffffffffffffffffffffffffffffffff16635b9dd19b8389898989896040518763ffffffff1660e01b81526004016108f495949392919061224c565b60206040518083038185885af1158015610910573d5f803e3d5ffd5b50505050506040513d601f19601f820116820180604052508101906109359190612073565b90508060065f60015481526020019081526020015f205f6101000a81548173ffffffffffffffffffffffffffffffffffffffff021916908373ffffffffffffffffffffffffffffffffffffffff16021790555060015f81548092919061099a90612155565b919050555050505050505b5050565b60025f9054906101000a900460ff16156109f8576040517f08c379a00000000000000000000000000000000000000000000000000000000081526004016109ef906122fc565b60405180910390fd5b600160025f6101000a81548160ff0219169083151502179055505f3403610a4b576040517fcbca5aa200000000000000000000000000000000000000000000000000000000815260040160405180910390fd5b610a536116c4565b4210610a8b576040517f04a5e67c00000000000000000000000000000000000000000000000000000000815260040160405180910390fd5b5f60045f60015481526020019081526020015f205f018260ff1660038110610ab657610ab561209e565b5b600502015f018054610ac7906120f8565b80601f0160208091040260200160405190810160405280929190818152602001828054610af3906120f8565b8015610b3e5780601f10610b1557610100808354040283529160200191610b3e565b820191905f5260205f20905b815481529060010190602001808311610b2157829003601f168201915b505050505090505f815103610b7f576040517f312a9f5600000000000000000000000000000000000000000000000000000000815260040160405180910390fd5b3460055f3373ffffffffffffffffffffffffffffffffffffffff1673ffffffffffffffffffffffffffffffffffffffff1681526020019081526020015f205f60015481526020019081526020015f205f8460ff1660ff1681526020019081526020015f205f828254610bf1919061231a565b925050819055503460045f60015481526020019081526020015f205f018360ff1660038110610c2357610c2261209e565b5b600502016003015f828254610c38919061231a565b925050819055503373ffffffffffffffffffffffffffffffffffffffff166001547f51db8e23b3f4479b162fd48823b8402895442b8f6cfd94f66239391881ec7b6f3485604051610c8a92919061234d565b60405180910390a3505f60025f6101000a81548160ff02191690831515021790555050565b6001548103610cea576040517f6c58631700000000000000000000000000000000000000000000000000000000815260040160405180910390fd5b5f610cf533836117ae565b90505f8103610d30576040517fcbca5aa200000000000000000000000000000000000000000000000000000000815260040160405180910390fd5b5f60065f8481526020019081526020015f205f9054906101000a900473ffffffffffffffffffffffffffffffffffffffff169050610d8f33838373ffffffffffffffffffffffffffffffffffffffff166119449092919063ffffffff16565b600160075f3373ffffffffffffffffffffffffffffffffffffffff1673ffffffffffffffffffffffffffffffffffffffff1681526020019081526020015f205f8581526020019081526020015f205f6101000a81548160ff0219169083151502179055507f896e034966eaaf1adc54acc0f257056febbd300c9e47182cf761982cf1f5e4303384604051610e24929190612374565b60405180910390a1505050565b5f8054906101000a900473ffffffffffffffffffffffffffffffffffffffff1673ffffffffffffffffffffffffffffffffffffffff1663420f68616040518163ffffffff1660e01b8152600401602060405180830381865afa158015610e99573d5f803e3d5ffd5b505050506040513d601f19601f82011682018060405250810190610ebd9190612073565b73ffffffffffffffffffffffffffffffffffffffff163373ffffffffffffffffffffffffffffffffffffffff1614610f21576040517f6115a9ad00000000000000000000000000000000000000000000000000000000815260040160405180910390fd5b60045f60015481526020019081526020015f20600f0154421015610f71576040517f6c58631700000000000000000000000000000000000000000000000000000000815260040160405180910390fd5b5f60045f60015481526020019081526020015f2090505f8054906101000a900473ffffffffffffffffffffffffffffffffffffffff1673ffffffffffffffffffffffffffffffffffffffff1663a08f9fec6040518163ffffffff1660e01b8152600401602060405180830381865afa158015610fef573d5f803e3d5ffd5b505050506040513d601f19601f8201168201806040525081019061101391906123af565b4261101e919061231a565b81600f01819055505f5b60038160ff16101561111557848160ff166003811061104a5761104961209e565b5b6020020151825f018260ff16600381106110675761106661209e565b5b600502015f019081611079919061256e565b50838160ff16600381106110905761108f61209e565b5b6020020151825f018260ff16600381106110ad576110ac61209e565b5b6005020160010190816110c0919061256e565b50828160ff16600381106110d7576110d661209e565b5b6020020151825f018260ff16600381106110f4576110f361209e565b5b600502016002019081611107919061256e565b508080600101915050611028565b5050505050565b6004602052805f5260405f205f9150905080600f0154905081565b5f6001548203611173576040517f6c58631700000000000000000000000000000000000000000000000000000000815260040160405180910390fd5b60065f8381526020019081526020015f205f9054906101000a900473ffffffffffffffffffffffffffffffffffffffff169050919050565b60608060605f805f60045f8981526020019081526020015f205f0187600381106111d8576111d761209e565b5b600502019050805f0181600101826002018360030154846004015f9054906101000a900460ff1684805461120b906120f8565b80601f0160208091040260200160405190810160405280929190818152602001828054611237906120f8565b80156112825780601f1061125957610100808354040283529160200191611282565b820191905f5260205f20905b81548152906001019060200180831161126557829003601f168201915b50505050509450838054611295906120f8565b80601f01602080910402602001604051908101604052809291908181526020018280546112c1906120f8565b801561130c5780601f106112e35761010080835404028352916020019161130c565b820191905f5260205f20905b8154815290600101906020018083116112ef57829003601f168201915b5050505050935082805461131f906120f8565b80601f016020809104026020016040519081016040528092919081815260200182805461134b906120f8565b80156113965780601f1061136d57610100808354040283529160200191611396565b820191905f5260205f20905b81548152906001019060200180831161137957829003601f168201915b5050505050925095509550955095509550509295509295909350565b5f60045f8381526020019081526020015f20600f01549050919050565b5f8103611408576040517fcbca5aa200000000000000000000000000000000000000000000000000000000815260040160405180910390fd5b60045f8481526020019081526020015f205f018260ff16600381106114305761142f61209e565b5b600502016004015f9054906101000a900460ff161561147b576040517f312a9f5600000000000000000000000000000000000000000000000000000000815260040160405180910390fd5b5f60055f3373ffffffffffffffffffffffffffffffffffffffff1673ffffffffffffffffffffffffffffffffffffffff1681526020019081526020015f205f8581526020019081526020015f205f8460ff1660ff1681526020019081526020015f205490508082111561151a576040517f0625040100000000000000000000000000000000000000000000000000000000815260040160405180910390fd5b5f3373ffffffffffffffffffffffffffffffffffffffff168360405161153f9061266a565b5f6040518083038185875af1925050503d805f8114611579576040519150601f19603f3d011682016040523d82523d5f602084013e61157e565b606091505b50509050806115c2576040517f08c379a00000000000000000000000000000000000000000000000000000000081526004016115b9906126c8565b60405180910390fd5b8260055f3373ffffffffffffffffffffffffffffffffffffffff1673ffffffffffffffffffffffffffffffffffffffff1681526020019081526020015f205f8781526020019081526020015f205f8660ff1660ff1681526020019081526020015f205f82825461163291906126e6565b925050819055508260045f60015481526020019081526020015f205f018560ff16600381106116645761166361209e565b5b600502016003015f82825461167991906126e6565b925050819055507f8f8619524e8d462cead34604bd2247ede24175801481e4d0b8059ac8aa41c30160015433856040516116b593929190612719565b60405180910390a15050505050565b5f60045f60015481526020019081526020015f20600f0154905090565b5f60045f8481526020019081526020015f205f0182600381106117075761170661209e565b5b6005020160030154905092915050565b5f60055f8573ffffffffffffffffffffffffffffffffffffffff1673ffffffffffffffffffffffffffffffffffffffff1681526020019081526020015f205f8481526020019081526020015f205f8360ff1660ff1681526020019081526020015f205490509392505050565b6005602052825f5260405f20602052815f5260405f20602052805f5260405f205f9250925050505481565b5f60015482036117ea576040517f6c58631700000000000000000000000000000000000000000000000000000000815260040160405180910390fd5b60075f8473ffffffffffffffffffffffffffffffffffffffff1673ffffffffffffffffffffffffffffffffffffffff1681526020019081526020015f205f8381526020019081526020015f205f9054906101000a900460ff1615611850575f905061193e565b5f60085f8481526020019081526020015f205f9054906101000a900460ff1690505f60055f8673ffffffffffffffffffffffffffffffffffffffff1673ffffffffffffffffffffffffffffffffffffffff1681526020019081526020015f205f8581526020019081526020015f205f8360ff1660ff1681526020019081526020015f205490505f81036118e7575f9250505061193e565b5f60045f8681526020019081526020015f205f018360ff16600381106119105761190f61209e565b5b600502016003015490505f816003548461192a919061274e565b61193491906127bc565b9050809450505050505b92915050565b5f6040517fa9059cbb00000000000000000000000000000000000000000000000000000000815273ffffffffffffffffffffffffffffffffffffffff8416600482015282602482015260205f6044835f895af1915081601f3d1160015f5114161516156119b4573d853b15171591505b50806119f5576040517f08c379a00000000000000000000000000000000000000000000000000000000081526004016119ec90612836565b60405180910390fd5b50505050565b5f819050919050565b611a0d816119fb565b82525050565b5f602082019050611a265f830184611a04565b92915050565b5f604051905090565b5f80fd5b5f80fd5b5f73ffffffffffffffffffffffffffffffffffffffff82169050919050565b5f611a6682611a3d565b9050919050565b611a7681611a5c565b8114611a80575f80fd5b50565b5f81359050611a9181611a6d565b92915050565b5f60ff82169050919050565b611aac81611a97565b8114611ab6575f80fd5b50565b5f81359050611ac781611aa3565b92915050565b5f8060408385031215611ae357611ae2611a35565b5b5f611af085828601611a83565b9250506020611b0185828601611ab9565b9150509250929050565b5f60208284031215611b2057611b1f611a35565b5b5f611b2d84828501611ab9565b91505092915050565b611b3f816119fb565b8114611b49575f80fd5b50565b5f81359050611b5a81611b36565b92915050565b5f60208284031215611b7557611b74611a35565b5b5f611b8284828501611b4c565b91505092915050565b5f80fd5b5f601f19601f8301169050919050565b7f4e487b71000000000000000000000000000000000000000000000000000000005f52604160045260245ffd5b611bd582611b8f565b810181811067ffffffffffffffff82111715611bf457611bf3611b9f565b5b80604052505050565b5f611c06611a2c565b9050611c128282611bcc565b919050565b5f67ffffffffffffffff821115611c3157611c30611b9f565b5b602082029050919050565b5f80fd5b5f80fd5b5f67ffffffffffffffff821115611c5e57611c5d611b9f565b5b611c6782611b8f565b9050602081019050919050565b828183375f83830152505050565b5f611c94611c8f84611c44565b611bfd565b905082815260208101848484011115611cb057611caf611c40565b5b611cbb848285611c74565b509392505050565b5f82601f830112611cd757611cd6611b8b565b5b8135611ce7848260208601611c82565b91505092915050565b5f611d02611cfd84611c17565b611bfd565b90508060208402830185811115611d1c57611d1b611c3c565b5b835b81811015611d6357803567ffffffffffffffff811115611d4157611d40611b8b565b5b808601611d4e8982611cc3565b85526020850194505050602081019050611d1e565b5050509392505050565b5f82601f830112611d8157611d80611b8b565b5b6003611d8e848285611cf0565b91505092915050565b5f805f60608486031215611dae57611dad611a35565b5b5f84013567ffffffffffffffff811115611dcb57611dca611a39565b5b611dd786828701611d6d565b935050602084013567ffffffffffffffff811115611df857611df7611a39565b5b611e0486828701611d6d565b925050604084013567ffffffffffffffff811115611e2557611e24611a39565b5b611e3186828701611d6d565b9150509250925092565b611e4481611a5c565b82525050565b5f602082019050611e5d5f830184611e3b565b92915050565b5f8060408385031215611e7957611e78611a35565b5b5f611e8685828601611b4c565b9250506020611e9785828601611b4c565b9150509250929050565b5f81519050919050565b5f82825260208201905092915050565b8281835e5f83830152505050565b5f611ed382611ea1565b611edd8185611eab565b9350611eed818560208601611ebb565b611ef681611b8f565b840191505092915050565b5f8115159050919050565b611f1581611f01565b82525050565b5f60a0820190508181035f830152611f338188611ec9565b90508181036020830152611f478187611ec9565b90508181036040830152611f5b8186611ec9565b9050611f6a6060830185611a04565b611f776080830184611f0c565b9695505050505050565b5f805f60608486031215611f9857611f97611a35565b5b5f611fa586828701611b4c565b9350506020611fb686828701611ab9565b9250506040611fc786828701611b4c565b9150509250925092565b5f805f60608486031215611fe857611fe7611a35565b5b5f611ff586828701611a83565b935050602061200686828701611b4c565b925050604061201786828701611ab9565b9150509250925092565b5f806040838503121561203757612036611a35565b5b5f61204485828601611a83565b925050602061205585828601611b4c565b9150509250929050565b5f8151905061206d81611a6d565b92915050565b5f6020828403121561208857612087611a35565b5b5f6120958482850161205f565b91505092915050565b7f4e487b71000000000000000000000000000000000000000000000000000000005f52603260045260245ffd5b7f4e487b71000000000000000000000000000000000000000000000000000000005f52602260045260245ffd5b5f600282049050600182168061210f57607f821691505b602082108103612122576121216120cb565b5b50919050565b7f4e487b71000000000000000000000000000000000000000000000000000000005f52601160045260245ffd5b5f61215f826119fb565b91507fffffffffffffffffffffffffffffffffffffffffffffffffffffffffffffffff820361219157612190612128565b5b600182019050919050565b5f6121a682611a3d565b9050919050565b5f6121b78261219c565b9050919050565b6121c7816121ad565b81146121d1575f80fd5b50565b5f815190506121e2816121be565b92915050565b5f602082840312156121fd576121fc611a35565b5b5f61220a848285016121d4565b91505092915050565b5f819050919050565b5f61223661223161222c84611a97565b612213565b6119fb565b9050919050565b6122468161221c565b82525050565b5f60a08201905061225f5f830188611e3b565b61226c602083018761223d565b818103604083015261227e8186611ec9565b905081810360608301526122928185611ec9565b905081810360808301526122a68184611ec9565b90509695505050505050565b7f5265656e7472616e637947756172643a207265656e7472616e742063616c6c005f82015250565b5f6122e6601f83611eab565b91506122f1826122b2565b602082019050919050565b5f6020820190508181035f830152612313816122da565b9050919050565b5f612324826119fb565b915061232f836119fb565b925082820190508082111561234757612346612128565b5b92915050565b5f6040820190506123605f830185611a04565b61236d602083018461223d565b9392505050565b5f6040820190506123875f830185611e3b565b6123946020830184611a04565b9392505050565b5f815190506123a981611b36565b92915050565b5f602082840312156123c4576123c3611a35565b5b5f6123d18482850161239b565b91505092915050565b5f819050815f5260205f209050919050565b5f6020601f8301049050919050565b5f82821b905092915050565b5f600883026124367fffffffffffffffffffffffffffffffffffffffffffffffffffffffffffffffff826123fb565b61244086836123fb565b95508019841693508086168417925050509392505050565b5f61247261246d612468846119fb565b612213565b6119fb565b9050919050565b5f819050919050565b61248b83612458565b61249f61249782612479565b848454612407565b825550505050565b5f90565b6124b36124a7565b6124be818484612482565b505050565b5b818110156124e1576124d65f826124ab565b6001810190506124c4565b5050565b601f821115612526576124f7816123da565b612500846123ec565b8101602085101561250f578190505b61252361251b856123ec565b8301826124c3565b50505b505050565b5f82821c905092915050565b5f6125465f198460080261252b565b1980831691505092915050565b5f61255e8383612537565b9150826002028217905092915050565b61257782611ea1565b67ffffffffffffffff8111156125905761258f611b9f565b5b61259a82546120f8565b6125a58282856124e5565b5f60209050601f8311600181146125d6575f84156125c4578287015190505b6125ce8582612553565b865550612635565b601f1984166125e4866123da565b5f5b8281101561260b578489015182556001820191506020850194506020810190506125e6565b868310156126285784890151612624601f891682612537565b8355505b6001600288020188555050505b505050505050565b5f81905092915050565b50565b5f6126555f8361263d565b915061266082612647565b5f82019050919050565b5f6126748261264a565b9150819050919050565b7f455448207472616e73666572206661696c6564000000000000000000000000005f82015250565b5f6126b2601383611eab565b91506126bd8261267e565b602082019050919050565b5f6020820190508181035f8301526126df816126a6565b9050919050565b5f6126f0826119fb565b91506126fb836119fb565b925082820390508181111561271357612712612128565b5b92915050565b5f60608201905061272c5f830186611a04565b6127396020830185611e3b565b6127466040830184611a04565b949350505050565b5f612758826119fb565b9150612763836119fb565b9250828202612771816119fb565b9150828204841483151761278857612787612128565b5b5092915050565b7f4e487b71000000000000000000000000000000000000000000000000000000005f52601260045260245ffd5b5f6127c6826119fb565b91506127d1836119fb565b9250826127e1576127e061278f565b5b828204905092915050565b7f5452414e534645525f4641494c454400000000000000000000000000000000005f82015250565b5f612820600f83611eab565b915061282b826127ec565b602082019050919050565b5f6020820190508181035f83015261284d81612814565b905091905056fea264697066735822122054c5a59ab93481950feef45a77237c5c0c7e2f61d48c4e1e1a5eb0dfdcd8645c64736f6c63430008190033","linkReferences":{}},"methodIdentifiers":{"auctionId()":"10782f8f","auctions(uint256)":"571a26a0","bid(uint8)":"33500e26","checkUnclaimedTokens(address,uint256)":"feb89a93","claimTokens(uint256)":"46e04a2f","closeCurrentAuction(address,uint8)":"2e5c9341","createAuction(string[3],string[3],string[3])":"496592fa","getAuctionCharacterData(uint256,uint256)":"865c9cdd","getAuctionEndTime(uint256)":"930e79f1","getCharacterTokenAddress(uint256)":"707cabc7","getCurrentAuctionEndTime()":"e3363f8b","getPoolBalance(uint256,uint256)":"e6248b9f","getUserBidBalance(address,uint256,uint8)":"ea757647","userBidBalance(address,uint256,uint8)":"ed4c4df5","withdrawBid(uint256,uint8,uint256)":"cc474c42"},"id":0}