{"abi":[{"type":"constructor","inputs":[],"stateMutability":"nonpayable"},{"type":"function","name":"AUCTION_DURATION_TIME","inputs":[],"outputs":[{"name":"","type":"uint256","internalType":"uint256"}],"stateMutability":"view"},{"type":"function","name":"BASIS_POINTS","inputs":[],"outputs":[{"name":"","type":"uint256","internalType":"uint256"}],"stateMutability":"view"},{"type":"function","name":"CHARACTER_OWNER_TAX_BPS","inputs":[],"outputs":[{"name":"","type":"uint256","internalType":"uint256"}],"stateMutability":"view"},{"type":"function","name":"CHARACTER_TOKEN_DECIMALS","inputs":[],"outputs":[{"name":"","type":"uint8","internalType":"uint8"}],"stateMutability":"view"},{"type":"function","name":"INITIAL_CHARACTER_TOKEN_SUPPLY","inputs":[],"outputs":[{"name":"","type":"uint256","internalType":"uint256"}],"stateMutability":"view"},{"type":"function","name":"LP_LOCK_BPS","inputs":[],"outputs":[{"name":"","type":"uint256","internalType":"uint256"}],"stateMutability":"view"},{"type":"function","name":"PROTOCOL_ADMIN_TAX_BPS","inputs":[],"outputs":[{"name":"","type":"uint256","internalType":"uint256"}],"stateMutability":"view"},{"type":"function","name":"WETH","inputs":[],"outputs":[{"name":"","type":"address","internalType":"contract ERC20"}],"stateMutability":"view"},{"type":"function","name":"auctionVault","inputs":[],"outputs":[{"name":"","type":"address","internalType":"contract AuctionVault"}],"stateMutability":"view"},{"type":"function","name":"digicharFactory","inputs":[],"outputs":[{"name":"","type":"address","internalType":"contract DigicharFactory"}],"stateMutability":"view"},{"type":"function","name":"ownershipCertificate","inputs":[],"outputs":[{"name":"","type":"address","internalType":"contract DigicharOwnershipCertificate"}],"stateMutability":"view"},{"type":"function","name":"protocolAdmin","inputs":[],"outputs":[{"name":"","type":"address","internalType":"address"}],"stateMutability":"view"},{"type":"function","name":"setAuctionDuration","inputs":[{"name":"_auctionDuration","type":"uint256","internalType":"uint256"}],"outputs":[],"stateMutability":"nonpayable"},{"type":"function","name":"setAuctionVault","inputs":[{"name":"_auctionVault","type":"address","internalType":"address"}],"outputs":[],"stateMutability":"nonpayable"},{"type":"function","name":"setCharacterOwnerTaxBps","inputs":[{"name":"_CHARACTER_OWNER_TAX_BPS","type":"uint256","internalType":"uint256"}],"outputs":[],"stateMutability":"nonpayable"},{"type":"function","name":"setDigicharFactory","inputs":[{"name":"_digicharFactory","type":"address","internalType":"address payable"}],"outputs":[],"stateMutability":"nonpayable"},{"type":"function","name":"setLpLockBps","inputs":[{"name":"_LP_LOCK_BPS","type":"uint256","internalType":"uint256"}],"outputs":[],"stateMutability":"nonpayable"},{"type":"function","name":"setOwnershipCertificate","inputs":[{"name":"_ownershipCertificate","type":"address","internalType":"address"}],"outputs":[],"stateMutability":"nonpayable"},{"type":"function","name":"setProtocolAdminTaxBps","inputs":[{"name":"_PROTOCOL_ADMIN_TAX_BPS","type":"uint256","internalType":"uint256"}],"outputs":[],"stateMutability":"nonpayable"},{"type":"function","name":"setSwapFactory","inputs":[{"name":"_swapFactory","type":"address","internalType":"address"}],"outputs":[],"stateMutability":"nonpayable"},{"type":"function","name":"setSwapRouter","inputs":[{"name":"_swapRouter","type":"address","internalType":"address"}],"outputs":[],"stateMutability":"nonpayable"},{"type":"function","name":"setWETH","inputs":[{"name":"_weth","type":"address","internalType":"address"}],"outputs":[],"stateMutability":"nonpayable"},{"type":"function","name":"swapFactory","inputs":[],"outputs":[{"name":"","type":"address","internalType":"contract IUniswapV2Factory"}],"stateMutability":"view"},{"type":"function","name":"swapRouter","inputs":[],"outputs":[{"name":"","type":"address","internalType":"contract IUniswapV2Router02"}],"stateMutability":"view"},{"type":"function","name":"updateProtocolAdmin","inputs":[{"name":"_protocolAdmin","type":"address","internalType":"address"}],"outputs":[],"stateMutability":"nonpayable"},{"type":"event","name":"AuctionDurationSet","inputs":[{"name":"_protocolAdmin","type":"address","indexed":true,"internalType":"address"},{"name":"_auctionDuration","type":"uint256","indexed":true,"internalType":"uint256"}],"anonymous":false},{"type":"event","name":"AuctionVaultSet","inputs":[{"name":"_protocolAdmin","type":"address","indexed":true,"internalType":"address"},{"name":"_auctionVault","type":"address","indexed":false,"internalType":"address"}],"anonymous":false},{"type":"event","name":"CharacterOwnerTaxBpsSet","inputs":[{"name":"_protocolAdmin","type":"address","indexed":true,"internalType":"address"},{"name":"_CHARACTER_OWNER_TAX_BPS","type":"uint256","indexed":false,"internalType":"uint256"}],"anonymous":false},{"type":"event","name":"DigicharFactorySet","inputs":[{"name":"_protocolAdmin","type":"address","indexed":true,"internalType":"address"},{"name":"_digicharFactory","type":"address","indexed":false,"internalType":"address"}],"anonymous":false},{"type":"event","name":"LpLockBpsSet","inputs":[{"name":"_protocolAdmin","type":"address","indexed":true,"internalType":"address"},{"name":"_LP_LOCK_BPS","type":"uint256","indexed":false,"internalType":"uint256"}],"anonymous":false},{"type":"event","name":"OwnershipCertificateSet","inputs":[{"name":"_protocolAdmin","type":"address","indexed":true,"internalType":"address"},{"name":"_ownershipCertificate","type":"address","indexed":false,"internalType":"address"}],"anonymous":false},{"type":"event","name":"ProtocolAdminTaxBpsSet","inputs":[{"name":"_protocolAdmin","type":"address","indexed":true,"internalType":"address"},{"name":"_PROTOCOL_ADMIN_TAX_BPS","type":"uint256","indexed":false,"internalType":"uint256"}],"anonymous":false},{"type":"event","name":"ProtocolAdminUpdated","inputs":[{"name":"_protocolAdmin","type":"address","indexed":false,"internalType":"address"}],"anonymous":false},{"type":"event","name":"SwapFactorySet","inputs":[{"name":"_protocolAdmin","type":"address","indexed":true,"internalType":"address"},{"name":"indexed_swapRouter","type":"address","indexed":false,"internalType":"address"}],"anonymous":false},{"type":"event","name":"SwapRouterSet","inputs":[{"name":"_protocolAdmin","type":"address","indexed":true,"internalType":"address"},{"name":"indexed_swapRouter","type":"address","indexed":false,"internalType":"address"}],"anonymous":false},{"type":"event","name":"WethSet","inputs":[{"name":"_weth","type":"address","indexed":false,"internalType":"address"}],"anonymous":false},{"type":"error","name":"OnlyProtocolAdmin","inputs":[]}],"bytecode":{"object":"0x608060405260646004556064600555604b600655620151806007553480156024575f80fd5b50335f806101000a81548173ffffffffffffffffffffffffffffffffffffffff021916908373ffffffffffffffffffffffffffffffffffffffff16021790555061153b806100715f395ff3fe608060405234801561000f575f80fd5b5060043610610171575f3560e01c8063860ad4ad116100dc578063ad5c464811610095578063c31c9c071161006f578063c31c9c07146103d7578063c34e596f146103f5578063e1f1c4a714610411578063fefe44fb1461042f57610171565b8063ad5c46481461037f578063c03addeb1461039d578063c1d3be8b146103bb57610171565b8063860ad4ad146102d3578063870a5a6a146102ef5780638cfcee701461030b578063a08f9fec14610327578063a497e67414610345578063a83239041461036157610171565b8063412736571161012e5780634127365714610225578063420f68611461024157806348a220a41461025f5780635b769f3c1461027d5780635fe09bd4146102995780637944f944146102b557610171565b806314dd4e721461017557806319481c28146101935780631ba31d87146101b1578063237f6fe1146101cd5780632852c5f1146101eb57806336bacfd514610209575b5f80fd5b61017d61044d565b60405161018a91906111d3565b60405180910390f35b61019b610472565b6040516101a89190611204565b60405180910390f35b6101cb60048036038101906101c6919061125c565b610478565b005b6101d56105ac565b6040516101e29190611204565b60405180910390f35b6101f36105b3565b6040516102009190611204565b60405180910390f35b610223600480360381019061021e91906112c2565b6105b9565b005b61023f600480360381019061023a91906112c2565b6106ed565b005b610249610821565b60405161025691906112fc565b60405180910390f35b610267610844565b6040516102749190611346565b60405180910390f35b610297600480360381019061029291906112c2565b610869565b005b6102b360048036038101906102ae91906112c2565b610967565b005b6102bd610a9b565b6040516102ca919061137f565b60405180910390f35b6102ed60048036038101906102e891906113c2565b610ac0565b005b610309600480360381019061030491906113c2565b610bbb565b005b610325600480360381019061032091906113c2565b610cb6565b005b61032f610db1565b60405161033c9190611204565b60405180910390f35b61035f600480360381019061035a91906113c2565b610db7565b005b610369610ea8565b6040516103769190611204565b60405180910390f35b610387610eae565b604051610394919061140d565b60405180910390f35b6103a5610ed3565b6040516103b29190611446565b60405180910390f35b6103d560048036038101906103d091906112c2565b610ef8565b005b6103df610ff5565b6040516103ec919061147f565b60405180910390f35b61040f600480360381019061040a91906112c2565b61101a565b005b61041961114e565b6040516104269190611204565b60405180910390f35b610437611154565b60405161044491906114b3565b60405180910390f35b60025f9054906101000a900473ffffffffffffffffffffffffffffffffffffffff1681565b60045481565b5f8054906101000a900473ffffffffffffffffffffffffffffffffffffffff1673ffffffffffffffffffffffffffffffffffffffff163373ffffffffffffffffffffffffffffffffffffffff16146104fc576040517f6115a9ad00000000000000000000000000000000000000000000000000000000815260040160405180910390fd5b8060025f6101000a81548173ffffffffffffffffffffffffffffffffffffffff021916908373ffffffffffffffffffffffffffffffffffffffff1602179055505f8054906101000a900473ffffffffffffffffffffffffffffffffffffffff1673ffffffffffffffffffffffffffffffffffffffff167fe52ed36946e838aa08d14091a69f2346ebfcd43c06995ecb6a492a934525cda8826040516105a191906114ec565b60405180910390a250565b620f424081565b60055481565b5f8054906101000a900473ffffffffffffffffffffffffffffffffffffffff1673ffffffffffffffffffffffffffffffffffffffff163373ffffffffffffffffffffffffffffffffffffffff161461063d576040517f6115a9ad00000000000000000000000000000000000000000000000000000000815260040160405180910390fd5b8060015f6101000a81548173ffffffffffffffffffffffffffffffffffffffff021916908373ffffffffffffffffffffffffffffffffffffffff1602179055505f8054906101000a900473ffffffffffffffffffffffffffffffffffffffff1673ffffffffffffffffffffffffffffffffffffffff167f1169f7a606d086ff68a850d62a6fe27dec0888e10a6da5660542c955933c4101826040516106e291906112fc565b60405180910390a250565b5f8054906101000a900473ffffffffffffffffffffffffffffffffffffffff1673ffffffffffffffffffffffffffffffffffffffff163373ffffffffffffffffffffffffffffffffffffffff1614610771576040517f6115a9ad00000000000000000000000000000000000000000000000000000000815260040160405180910390fd5b8060085f6101000a81548173ffffffffffffffffffffffffffffffffffffffff021916908373ffffffffffffffffffffffffffffffffffffffff1602179055505f8054906101000a900473ffffffffffffffffffffffffffffffffffffffff1673ffffffffffffffffffffffffffffffffffffffff167fc7324ad5feb4318ddf48817d97597d40855e50e83dc1b1b796bd5fb48dd9379f8260405161081691906112fc565b60405180910390a250565b5f8054906101000a900473ffffffffffffffffffffffffffffffffffffffff1681565b60015f9054906101000a900473ffffffffffffffffffffffffffffffffffffffff1681565b5f8054906101000a900473ffffffffffffffffffffffffffffffffffffffff1673ffffffffffffffffffffffffffffffffffffffff163373ffffffffffffffffffffffffffffffffffffffff16146108ed576040517f6115a9ad00000000000000000000000000000000000000000000000000000000815260040160405180910390fd5b80600a5f6101000a81548173ffffffffffffffffffffffffffffffffffffffff021916908373ffffffffffffffffffffffffffffffffffffffff1602179055507f13a533084dcbb1cfe0dbea708ea977223c27c44d94f2fa3867a167c9cd340bf98160405161095c91906112fc565b60405180910390a150565b5f8054906101000a900473ffffffffffffffffffffffffffffffffffffffff1673ffffffffffffffffffffffffffffffffffffffff163373ffffffffffffffffffffffffffffffffffffffff16146109eb576040517f6115a9ad00000000000000000000000000000000000000000000000000000000815260040160405180910390fd5b8060035f6101000a81548173ffffffffffffffffffffffffffffffffffffffff021916908373ffffffffffffffffffffffffffffffffffffffff1602179055505f8054906101000a900473ffffffffffffffffffffffffffffffffffffffff1673ffffffffffffffffffffffffffffffffffffffff167f7ea377f3816f29853c82df0877bb1cde2c5f2d5cf152c125a7ba779de8a2ae2d82604051610a9091906112fc565b60405180910390a250565b60095f9054906101000a900473ffffffffffffffffffffffffffffffffffffffff1681565b5f8054906101000a900473ffffffffffffffffffffffffffffffffffffffff1673ffffffffffffffffffffffffffffffffffffffff163373ffffffffffffffffffffffffffffffffffffffff1614610b44576040517f6115a9ad00000000000000000000000000000000000000000000000000000000815260040160405180910390fd5b806004819055505f8054906101000a900473ffffffffffffffffffffffffffffffffffffffff1673ffffffffffffffffffffffffffffffffffffffff167f6f320814c0f1f6b06c16664894397529ffe2af27a8db8d442f0499a942d448c182604051610bb09190611204565b60405180910390a250565b5f8054906101000a900473ffffffffffffffffffffffffffffffffffffffff1673ffffffffffffffffffffffffffffffffffffffff163373ffffffffffffffffffffffffffffffffffffffff1614610c3f576040517f6115a9ad00000000000000000000000000000000000000000000000000000000815260040160405180910390fd5b806005819055505f8054906101000a900473ffffffffffffffffffffffffffffffffffffffff1673ffffffffffffffffffffffffffffffffffffffff167f0af45f32dc02b1b428edc1ad945925b97b92f07c093d8c064742c2bbbb6af21c82604051610cab9190611204565b60405180910390a250565b5f8054906101000a900473ffffffffffffffffffffffffffffffffffffffff1673ffffffffffffffffffffffffffffffffffffffff163373ffffffffffffffffffffffffffffffffffffffff1614610d3a576040517f6115a9ad00000000000000000000000000000000000000000000000000000000815260040160405180910390fd5b806006819055505f8054906101000a900473ffffffffffffffffffffffffffffffffffffffff1673ffffffffffffffffffffffffffffffffffffffff167fa50376bd17a753e4029be274bf91c118adf1f58fad1fb2e5c8b11922451b523982604051610da69190611204565b60405180910390a250565b60075481565b5f8054906101000a900473ffffffffffffffffffffffffffffffffffffffff1673ffffffffffffffffffffffffffffffffffffffff163373ffffffffffffffffffffffffffffffffffffffff1614610e3b576040517f6115a9ad00000000000000000000000000000000000000000000000000000000815260040160405180910390fd5b80600781905550805f8054906101000a900473ffffffffffffffffffffffffffffffffffffffff1673ffffffffffffffffffffffffffffffffffffffff167f19213d4c02fb176c99e70ffb38f9ad661b26823eabeee409da706147603105f560405160405180910390a350565b60065481565b600a5f9054906101000a900473ffffffffffffffffffffffffffffffffffffffff1681565b60035f9054906101000a900473ffffffffffffffffffffffffffffffffffffffff1681565b5f8054906101000a900473ffffffffffffffffffffffffffffffffffffffff1673ffffffffffffffffffffffffffffffffffffffff163373ffffffffffffffffffffffffffffffffffffffff1614610f7c576040517f6115a9ad00000000000000000000000000000000000000000000000000000000815260040160405180910390fd5b805f806101000a81548173ffffffffffffffffffffffffffffffffffffffff021916908373ffffffffffffffffffffffffffffffffffffffff1602179055507f1af81a401acf01a36af32532151690df1252f468decdeb32a9252e7e15d0a30f81604051610fea91906112fc565b60405180910390a150565b60085f9054906101000a900473ffffffffffffffffffffffffffffffffffffffff1681565b5f8054906101000a900473ffffffffffffffffffffffffffffffffffffffff1673ffffffffffffffffffffffffffffffffffffffff163373ffffffffffffffffffffffffffffffffffffffff161461109e576040517f6115a9ad00000000000000000000000000000000000000000000000000000000815260040160405180910390fd5b8060095f6101000a81548173ffffffffffffffffffffffffffffffffffffffff021916908373ffffffffffffffffffffffffffffffffffffffff1602179055505f8054906101000a900473ffffffffffffffffffffffffffffffffffffffff1673ffffffffffffffffffffffffffffffffffffffff167f987474994174ad1e540b3d087a7be23fe194aff1c8e33af910c9953f7dd1d1d58260405161114391906112fc565b60405180910390a250565b61271081565b601281565b5f73ffffffffffffffffffffffffffffffffffffffff82169050919050565b5f819050919050565b5f61119b61119661119184611159565b611178565b611159565b9050919050565b5f6111ac82611181565b9050919050565b5f6111bd826111a2565b9050919050565b6111cd816111b3565b82525050565b5f6020820190506111e65f8301846111c4565b92915050565b5f819050919050565b6111fe816111ec565b82525050565b5f6020820190506112175f8301846111f5565b92915050565b5f80fd5b5f61122b82611159565b9050919050565b61123b81611221565b8114611245575f80fd5b50565b5f8135905061125681611232565b92915050565b5f602082840312156112715761127061121d565b5b5f61127e84828501611248565b91505092915050565b5f61129182611159565b9050919050565b6112a181611287565b81146112ab575f80fd5b50565b5f813590506112bc81611298565b92915050565b5f602082840312156112d7576112d661121d565b5b5f6112e4848285016112ae565b91505092915050565b6112f681611287565b82525050565b5f60208201905061130f5f8301846112ed565b92915050565b5f61131f82611181565b9050919050565b5f61133082611315565b9050919050565b61134081611326565b82525050565b5f6020820190506113595f830184611337565b92915050565b5f61136982611315565b9050919050565b6113798161135f565b82525050565b5f6020820190506113925f830184611370565b92915050565b6113a1816111ec565b81146113ab575f80fd5b50565b5f813590506113bc81611398565b92915050565b5f602082840312156113d7576113d661121d565b5b5f6113e4848285016113ae565b91505092915050565b5f6113f782611315565b9050919050565b611407816113ed565b82525050565b5f6020820190506114205f8301846113fe565b92915050565b5f61143082611315565b9050919050565b61144081611426565b82525050565b5f6020820190506114595f830184611437565b92915050565b5f61146982611315565b9050919050565b6114798161145f565b82525050565b5f6020820190506114925f830184611470565b92915050565b5f60ff82169050919050565b6114ad81611498565b82525050565b5f6020820190506114c65f8301846114a4565b92915050565b5f6114d682611315565b9050919050565b6114e6816114cc565b82525050565b5f6020820190506114ff5f8301846114dd565b9291505056fea2646970667358221220a014e3d10491eeb4fad86e202ad8b7248cb09f216508d42a8f63ba342aed0cf564736f6c63430008190033","linkReferences":{}},"methodIdentifiers":{"AUCTION_DURATION_TIME()":"a08f9fec","BASIS_POINTS()":"e1f1c4a7","CHARACTER_OWNER_TAX_BPS()":"2852c5f1","CHARACTER_TOKEN_DECIMALS()":"fefe44fb","INITIAL_CHARACTER_TOKEN_SUPPLY()":"237f6fe1","LP_LOCK_BPS()":"a8323904","PROTOCOL_ADMIN_TAX_BPS()":"19481c28","WETH()":"ad5c4648","auctionVault()":"48a220a4","digicharFactory()":"14dd4e72","ownershipCertificate()":"c03addeb","protocolAdmin()":"420f6861","setAuctionDuration(uint256)":"a497e674","setAuctionVault(address)":"36bacfd5","setCharacterOwnerTaxBps(uint256)":"870a5a6a","setDigicharFactory(address)":"1ba31d87","setLpLockBps(uint256)":"8cfcee70","setOwnershipCertificate(address)":"5fe09bd4","setProtocolAdminTaxBps(uint256)":"860ad4ad","setSwapFactory(address)":"c34e596f","setSwapRouter(address)":"41273657","setWETH(address)":"5b769f3c","swapFactory()":"7944f944","swapRouter()":"c31c9c07","updateProtocolAdmin(address)":"c1d3be8b"},"id":1}